{
  "contractName": "TaskContract",
  "abi": [
    {
      "inputs": [],
      "stateMutability": "nonpayable",
      "type": "constructor"
    },
    {
      "anonymous": false,
      "inputs": [
        {
          "indexed": false,
          "internalType": "string",
          "name": "message",
          "type": "string"
        }
      ],
      "name": "Debug",
      "type": "event"
    },
    {
      "anonymous": false,
      "inputs": [
        {
          "indexed": false,
          "internalType": "uint256",
          "name": "value",
          "type": "uint256"
        }
      ],
      "name": "DebugUint",
      "type": "event"
    },
    {
      "anonymous": false,
      "inputs": [
        {
          "indexed": false,
          "internalType": "uint256",
          "name": "id",
          "type": "uint256"
        },
        {
          "indexed": false,
          "internalType": "bool",
          "name": "completed",
          "type": "bool"
        }
      ],
      "name": "TaskCompleted",
      "type": "event"
    },
    {
      "anonymous": false,
      "inputs": [
        {
          "indexed": false,
          "internalType": "uint256",
          "name": "id",
          "type": "uint256"
        },
        {
          "indexed": false,
          "internalType": "string",
          "name": "title",
          "type": "string"
        },
        {
          "indexed": false,
          "internalType": "address",
          "name": "createdBy",
          "type": "address"
        }
      ],
      "name": "TaskCreated",
      "type": "event"
    },
    {
      "inputs": [],
      "name": "taskCount",
      "outputs": [
        {
          "internalType": "uint256",
          "name": "",
          "type": "uint256"
        }
      ],
      "stateMutability": "view",
      "type": "function"
    },
    {
      "inputs": [
        {
          "internalType": "uint256",
          "name": "",
          "type": "uint256"
        }
      ],
      "name": "tasks",
      "outputs": [
        {
          "internalType": "uint256",
          "name": "id",
          "type": "uint256"
        },
        {
          "internalType": "string",
          "name": "title",
          "type": "string"
        },
        {
          "internalType": "bool",
          "name": "completed",
          "type": "bool"
        },
        {
          "internalType": "address",
          "name": "createdBy",
          "type": "address"
        }
      ],
      "stateMutability": "view",
      "type": "function"
    },
    {
      "inputs": [
        {
          "internalType": "string",
          "name": "_title",
          "type": "string"
        }
      ],
      "name": "createTask",
      "outputs": [],
      "stateMutability": "nonpayable",
      "type": "function"
    },
    {
      "inputs": [
        {
          "internalType": "uint256",
          "name": "_id",
          "type": "uint256"
        }
      ],
      "name": "completeTask",
      "outputs": [],
      "stateMutability": "nonpayable",
      "type": "function"
    },
    {
      "inputs": [
        {
          "internalType": "uint256",
          "name": "_id",
          "type": "uint256"
        }
      ],
      "name": "getTask",
      "outputs": [
        {
          "components": [
            {
              "internalType": "uint256",
              "name": "id",
              "type": "uint256"
            },
            {
              "internalType": "string",
              "name": "title",
              "type": "string"
            },
            {
              "internalType": "bool",
              "name": "completed",
              "type": "bool"
            },
            {
              "internalType": "address",
              "name": "createdBy",
              "type": "address"
            }
          ],
          "internalType": "struct TaskContract.Task",
          "name": "",
          "type": "tuple"
        }
      ],
      "stateMutability": "view",
      "type": "function"
    }
  ],
  "bytecode": "0x608060405234801562000010575f80fd5b507f7cdb51e9dbbc205231228146c3246e7f914aa6d4a33170e43ecc8e3593481d1a6040516200004090620000ee565b60405180910390a15f6001819055507ff0ed029e274dabb7636aeed7333cf47bc8c97dd6eb6d8faea6e9bfbd6620bebe60015460405162000082919062000128565b60405180910390a162000143565b5f82825260208201905092915050565b7f436f6e7374727563746f722063616c6c656400000000000000000000000000005f82015250565b5f620000d660128362000090565b9150620000e382620000a0565b602082019050919050565b5f6020820190508181035f8301526200010781620000c8565b9050919050565b5f819050919050565b62000122816200010e565b82525050565b5f6020820190506200013d5f83018462000117565b92915050565b61118780620001515f395ff3fe608060405234801561000f575f80fd5b5060043610610055575f3560e01c8063111002aa146100595780631d65e77e146100755780638d977672146100a5578063b6cb58a5146100d8578063e1e29558146100f6575b5f80fd5b610073600480360381019061006e919061090c565b610112565b005b61008f600480360381019061008a9190610986565b610272565b60405161009c9190610af3565b60405180910390f35b6100bf60048036038101906100ba9190610986565b6103a5565b6040516100cf9493929190610b88565b60405180910390f35b6100e0610482565b6040516100ed9190610bd2565b60405180910390f35b610110600480360381019061010b9190610986565b610488565b005b60015f81548092919061012490610c18565b9190505550604051806080016040528060015481526020018281526020015f151581526020013373ffffffffffffffffffffffffffffffffffffffff168152505f8060015481526020019081526020015f205f820151815f015560208201518160010190816101939190610e59565b506040820151816002015f6101000a81548160ff02191690831515021790555060608201518160020160016101000a81548173ffffffffffffffffffffffffffffffffffffffff021916908373ffffffffffffffffffffffffffffffffffffffff1602179055509050507fdc691e972cb25fd6e968744b5a6416d42a052ac1305e3b7ed6777b621304b7f2600154823360405161023293929190610f28565b60405180910390a17f7cdb51e9dbbc205231228146c3246e7f914aa6d4a33170e43ecc8e3593481d1a60405161026790610fae565b60405180910390a150565b61027a610782565b5f808381526020019081526020015f206040518060800160405290815f82015481526020016001820180546102ae90610c8c565b80601f01602080910402602001604051908101604052809291908181526020018280546102da90610c8c565b80156103255780601f106102fc57610100808354040283529160200191610325565b820191905f5260205f20905b81548152906001019060200180831161030857829003601f168201915b50505050508152602001600282015f9054906101000a900460ff161515151581526020016002820160019054906101000a900473ffffffffffffffffffffffffffffffffffffffff1673ffffffffffffffffffffffffffffffffffffffff1673ffffffffffffffffffffffffffffffffffffffff16815250509050919050565b5f602052805f5260405f205f91509050805f0154908060010180546103c990610c8c565b80601f01602080910402602001604051908101604052809291908181526020018280546103f590610c8c565b80156104405780601f1061041757610100808354040283529160200191610440565b820191905f5260205f20905b81548152906001019060200180831161042357829003601f168201915b505050505090806002015f9054906101000a900460ff16908060020160019054906101000a900473ffffffffffffffffffffffffffffffffffffffff16905084565b60015481565b5f805f8381526020019081526020015f206040518060800160405290815f82015481526020016001820180546104bd90610c8c565b80601f01602080910402602001604051908101604052809291908181526020018280546104e990610c8c565b80156105345780601f1061050b57610100808354040283529160200191610534565b820191905f5260205f20905b81548152906001019060200180831161051757829003601f168201915b50505050508152602001600282015f9054906101000a900460ff161515151581526020016002820160019054906101000a900473ffffffffffffffffffffffffffffffffffffffff1673ffffffffffffffffffffffffffffffffffffffff1673ffffffffffffffffffffffffffffffffffffffff168152505090505f815f0151116105f4576040517f08c379a00000000000000000000000000000000000000000000000000000000081526004016105eb90611016565b60405180910390fd5b3373ffffffffffffffffffffffffffffffffffffffff16816060015173ffffffffffffffffffffffffffffffffffffffff1614610666576040517f08c379a000000000000000000000000000000000000000000000000000000000815260040161065d906110a4565b60405180910390fd5b6001816040019015159081151581525050805f808481526020019081526020015f205f820151815f015560208201518160010190816106a59190610e59565b506040820151816002015f6101000a81548160ff02191690831515021790555060608201518160020160016101000a81548173ffffffffffffffffffffffffffffffffffffffff021916908373ffffffffffffffffffffffffffffffffffffffff1602179055509050507fe21fa966ca5cd02748c0752352d18c48165e61cb55b4c29cccf924b5a95fcff18260016040516107419291906110c2565b60405180910390a17f7cdb51e9dbbc205231228146c3246e7f914aa6d4a33170e43ecc8e3593481d1a60405161077690611133565b60405180910390a15050565b60405180608001604052805f8152602001606081526020015f151581526020015f73ffffffffffffffffffffffffffffffffffffffff1681525090565b5f604051905090565b5f80fd5b5f80fd5b5f80fd5b5f80fd5b5f601f19601f8301169050919050565b7f4e487b71000000000000000000000000000000000000000000000000000000005f52604160045260245ffd5b61081e826107d8565b810181811067ffffffffffffffff8211171561083d5761083c6107e8565b5b80604052505050565b5f61084f6107bf565b905061085b8282610815565b919050565b5f67ffffffffffffffff82111561087a576108796107e8565b5b610883826107d8565b9050602081019050919050565b828183375f83830152505050565b5f6108b06108ab84610860565b610846565b9050828152602081018484840111156108cc576108cb6107d4565b5b6108d7848285610890565b509392505050565b5f82601f8301126108f3576108f26107d0565b5b813561090384826020860161089e565b91505092915050565b5f60208284031215610921576109206107c8565b5b5f82013567ffffffffffffffff81111561093e5761093d6107cc565b5b61094a848285016108df565b91505092915050565b5f819050919050565b61096581610953565b811461096f575f80fd5b50565b5f813590506109808161095c565b92915050565b5f6020828403121561099b5761099a6107c8565b5b5f6109a884828501610972565b91505092915050565b6109ba81610953565b82525050565b5f81519050919050565b5f82825260208201905092915050565b5f5b838110156109f75780820151818401526020810190506109dc565b5f8484015250505050565b5f610a0c826109c0565b610a1681856109ca565b9350610a268185602086016109da565b610a2f816107d8565b840191505092915050565b5f8115159050919050565b610a4e81610a3a565b82525050565b5f73ffffffffffffffffffffffffffffffffffffffff82169050919050565b5f610a7d82610a54565b9050919050565b610a8d81610a73565b82525050565b5f608083015f830151610aa85f8601826109b1565b5060208301518482036020860152610ac08282610a02565b9150506040830151610ad56040860182610a45565b506060830151610ae86060860182610a84565b508091505092915050565b5f6020820190508181035f830152610b0b8184610a93565b905092915050565b610b1c81610953565b82525050565b5f82825260208201905092915050565b5f610b3c826109c0565b610b468185610b22565b9350610b568185602086016109da565b610b5f816107d8565b840191505092915050565b610b7381610a3a565b82525050565b610b8281610a73565b82525050565b5f608082019050610b9b5f830187610b13565b8181036020830152610bad8186610b32565b9050610bbc6040830185610b6a565b610bc96060830184610b79565b95945050505050565b5f602082019050610be55f830184610b13565b92915050565b7f4e487b71000000000000000000000000000000000000000000000000000000005f52601160045260245ffd5b5f610c2282610953565b91507fffffffffffffffffffffffffffffffffffffffffffffffffffffffffffffffff8203610c5457610c53610beb565b5b600182019050919050565b7f4e487b71000000000000000000000000000000000000000000000000000000005f52602260045260245ffd5b5f6002820490506001821680610ca357607f821691505b602082108103610cb657610cb5610c5f565b5b50919050565b5f819050815f5260205f209050919050565b5f6020601f8301049050919050565b5f82821b905092915050565b5f60088302610d187fffffffffffffffffffffffffffffffffffffffffffffffffffffffffffffffff82610cdd565b610d228683610cdd565b95508019841693508086168417925050509392505050565b5f819050919050565b5f610d5d610d58610d5384610953565b610d3a565b610953565b9050919050565b5f819050919050565b610d7683610d43565b610d8a610d8282610d64565b848454610ce9565b825550505050565b5f90565b610d9e610d92565b610da9818484610d6d565b505050565b5b81811015610dcc57610dc15f82610d96565b600181019050610daf565b5050565b601f821115610e1157610de281610cbc565b610deb84610cce565b81016020851015610dfa578190505b610e0e610e0685610cce565b830182610dae565b50505b505050565b5f82821c905092915050565b5f610e315f1984600802610e16565b1980831691505092915050565b5f610e498383610e22565b9150826002028217905092915050565b610e62826109c0565b67ffffffffffffffff811115610e7b57610e7a6107e8565b5b610e858254610c8c565b610e90828285610dd0565b5f60209050601f831160018114610ec1575f8415610eaf578287015190505b610eb98582610e3e565b865550610f20565b601f198416610ecf86610cbc565b5f5b82811015610ef657848901518255600182019150602085019450602081019050610ed1565b86831015610f135784890151610f0f601f891682610e22565b8355505b6001600288020188555050505b505050505050565b5f606082019050610f3b5f830186610b13565b8181036020830152610f4d8185610b32565b9050610f5c6040830184610b79565b949350505050565b7f5461736b206372656174656400000000000000000000000000000000000000005f82015250565b5f610f98600c83610b22565b9150610fa382610f64565b602082019050919050565b5f6020820190508181035f830152610fc581610f8c565b9050919050565b7f5461736b20646f6573206e6f74206578697374000000000000000000000000005f82015250565b5f611000601383610b22565b915061100b82610fcc565b602082019050919050565b5f6020820190508181035f83015261102d81610ff4565b9050919050565b7f4f6e6c79207468652063726561746f722063616e20636f6d706c6574652074685f8201527f65207461736b0000000000000000000000000000000000000000000000000000602082015250565b5f61108e602683610b22565b915061109982611034565b604082019050919050565b5f6020820190508181035f8301526110bb81611082565b9050919050565b5f6040820190506110d55f830185610b13565b6110e26020830184610b6a565b9392505050565b7f5461736b20636f6d706c657465640000000000000000000000000000000000005f82015250565b5f61111d600e83610b22565b9150611128826110e9565b602082019050919050565b5f6020820190508181035f83015261114a81611111565b905091905056fea26469706673582212201e3f56ef61c97179374f2f0918151d43b17e0e33596d400626fc9093dbe21aa564736f6c63430008150033",
  "immutableReferences": {},
  "source": "// SPDX-License-Identifier: MIT\npragma solidity ^0.8.0;\n\ncontract TaskContract {\n    struct Task {\n        uint id;\n        string title;\n        bool completed;\n        address createdBy;\n    }\n\n    mapping(uint => Task) public tasks;\n    uint public taskCount;\n\n    event TaskCreated(uint id, string title, address createdBy);\n    event TaskCompleted(uint id, bool completed);\n    event Debug(string message);\n    event DebugUint(uint value);\n\n    constructor() {\n        emit Debug(\"Constructor called\");\n        taskCount = 0;\n        emit DebugUint(taskCount);\n    }\n\n    function createTask(string memory _title) public {\n        taskCount++;\n        tasks[taskCount] = Task(taskCount, _title, false, msg.sender);\n        emit TaskCreated(taskCount, _title, msg.sender);\n        emit Debug(\"Task created\");\n    }\n\n    function completeTask(uint _id) public {\n        Task memory _task = tasks[_id];\n        require(_task.id > 0, \"Task does not exist\");\n        require(_task.createdBy == msg.sender, \"Only the creator can complete the task\");\n        _task.completed = true;\n        tasks[_id] = _task;\n        emit TaskCompleted(_id, true);\n        emit Debug(\"Task completed\");\n    }\n\n    function getTask(uint _id) public view returns (Task memory) {\n        return tasks[_id];\n    }\n}",
  "sourcePath": "/Users/myproperty/Todo-App-1/task-blockchain/contracts/TaskContract.sol",
  "compiler": {
    "name": "solc",
    "version": "0.8.21+commit.d9974bed.Emscripten.clang"
  },
  "schemaVersion": "3.4.16",
  "updatedAt": "2025-01-31T10:30:35.643Z",
  "devdoc": {
    "kind": "dev",
    "methods": {},
    "version": 1
  },
  "userdoc": {
    "kind": "user",
    "methods": {},
    "version": 1
  }
}